{
  "_format": "hh-sol-artifact-1",
  "contractName": "CityQuiz3",
  "sourceName": "contracts/CityQuiz3NFT.sol",
  "abi": [
    {
      "inputs": [],
      "stateMutability": "nonpayable",
      "type": "constructor"
    },
    {
      "anonymous": false,
      "inputs": [
        {
          "indexed": true,
          "internalType": "address",
          "name": "owner",
          "type": "address"
        },
        {
          "indexed": true,
          "internalType": "address",
          "name": "approved",
          "type": "address"
        },
        {
          "indexed": true,
          "internalType": "uint256",
          "name": "tokenId",
          "type": "uint256"
        }
      ],
      "name": "Approval",
      "type": "event"
    },
    {
      "anonymous": false,
      "inputs": [
        {
          "indexed": true,
          "internalType": "address",
          "name": "owner",
          "type": "address"
        },
        {
          "indexed": true,
          "internalType": "address",
          "name": "operator",
          "type": "address"
        },
        {
          "indexed": false,
          "internalType": "bool",
          "name": "approved",
          "type": "bool"
        }
      ],
      "name": "ApprovalForAll",
      "type": "event"
    },
    {
      "anonymous": false,
      "inputs": [
        {
          "indexed": true,
          "internalType": "address",
          "name": "from",
          "type": "address"
        },
        {
          "indexed": true,
          "internalType": "address",
          "name": "to",
          "type": "address"
        },
        {
          "indexed": true,
          "internalType": "uint256",
          "name": "tokenId",
          "type": "uint256"
        }
      ],
      "name": "Transfer",
      "type": "event"
    },
    {
      "inputs": [
        {
          "internalType": "address",
          "name": "to",
          "type": "address"
        },
        {
          "internalType": "uint256",
          "name": "tokenId",
          "type": "uint256"
        }
      ],
      "name": "approve",
      "outputs": [],
      "stateMutability": "nonpayable",
      "type": "function"
    },
    {
      "inputs": [
        {
          "internalType": "address",
          "name": "owner",
          "type": "address"
        }
      ],
      "name": "balanceOf",
      "outputs": [
        {
          "internalType": "uint256",
          "name": "",
          "type": "uint256"
        }
      ],
      "stateMutability": "view",
      "type": "function"
    },
    {
      "inputs": [
        {
          "internalType": "uint256",
          "name": "tokenId",
          "type": "uint256"
        }
      ],
      "name": "getApproved",
      "outputs": [
        {
          "internalType": "address",
          "name": "",
          "type": "address"
        }
      ],
      "stateMutability": "view",
      "type": "function"
    },
    {
      "inputs": [
        {
          "internalType": "address",
          "name": "owner",
          "type": "address"
        },
        {
          "internalType": "address",
          "name": "operator",
          "type": "address"
        }
      ],
      "name": "isApprovedForAll",
      "outputs": [
        {
          "internalType": "bool",
          "name": "",
          "type": "bool"
        }
      ],
      "stateMutability": "view",
      "type": "function"
    },
    {
      "inputs": [
        {
          "internalType": "address",
          "name": "player",
          "type": "address"
        },
        {
          "internalType": "string",
          "name": "_building",
          "type": "string"
        },
        {
          "internalType": "string",
          "name": "_quiz",
          "type": "string"
        }
      ],
      "name": "mint",
      "outputs": [
        {
          "internalType": "uint256",
          "name": "",
          "type": "uint256"
        }
      ],
      "stateMutability": "nonpayable",
      "type": "function"
    },
    {
      "inputs": [],
      "name": "name",
      "outputs": [
        {
          "internalType": "string",
          "name": "",
          "type": "string"
        }
      ],
      "stateMutability": "view",
      "type": "function"
    },
    {
      "inputs": [
        {
          "internalType": "uint256",
          "name": "tokenId",
          "type": "uint256"
        }
      ],
      "name": "ownerOf",
      "outputs": [
        {
          "internalType": "address",
          "name": "",
          "type": "address"
        }
      ],
      "stateMutability": "view",
      "type": "function"
    },
    {
      "inputs": [
        {
          "internalType": "address",
          "name": "from",
          "type": "address"
        },
        {
          "internalType": "address",
          "name": "to",
          "type": "address"
        },
        {
          "internalType": "uint256",
          "name": "tokenId",
          "type": "uint256"
        }
      ],
      "name": "safeTransferFrom",
      "outputs": [],
      "stateMutability": "nonpayable",
      "type": "function"
    },
    {
      "inputs": [
        {
          "internalType": "address",
          "name": "from",
          "type": "address"
        },
        {
          "internalType": "address",
          "name": "to",
          "type": "address"
        },
        {
          "internalType": "uint256",
          "name": "tokenId",
          "type": "uint256"
        },
        {
          "internalType": "bytes",
          "name": "data",
          "type": "bytes"
        }
      ],
      "name": "safeTransferFrom",
      "outputs": [],
      "stateMutability": "nonpayable",
      "type": "function"
    },
    {
      "inputs": [
        {
          "internalType": "address",
          "name": "operator",
          "type": "address"
        },
        {
          "internalType": "bool",
          "name": "approved",
          "type": "bool"
        }
      ],
      "name": "setApprovalForAll",
      "outputs": [],
      "stateMutability": "nonpayable",
      "type": "function"
    },
    {
      "inputs": [
        {
          "internalType": "bytes4",
          "name": "interfaceId",
          "type": "bytes4"
        }
      ],
      "name": "supportsInterface",
      "outputs": [
        {
          "internalType": "bool",
          "name": "",
          "type": "bool"
        }
      ],
      "stateMutability": "view",
      "type": "function"
    },
    {
      "inputs": [],
      "name": "symbol",
      "outputs": [
        {
          "internalType": "string",
          "name": "",
          "type": "string"
        }
      ],
      "stateMutability": "view",
      "type": "function"
    },
    {
      "inputs": [
        {
          "internalType": "uint256",
          "name": "tokenId",
          "type": "uint256"
        }
      ],
      "name": "tokenURI",
      "outputs": [
        {
          "internalType": "string",
          "name": "",
          "type": "string"
        }
      ],
      "stateMutability": "view",
      "type": "function"
    },
    {
      "inputs": [
        {
          "internalType": "address",
          "name": "from",
          "type": "address"
        },
        {
          "internalType": "address",
          "name": "to",
          "type": "address"
        },
        {
          "internalType": "uint256",
          "name": "tokenId",
          "type": "uint256"
        }
      ],
      "name": "transferFrom",
      "outputs": [],
      "stateMutability": "nonpayable",
      "type": "function"
    }
  ],
  "bytecode": "0x60806040523480156200001157600080fd5b506040518060400160405280600981526020017f436974795175697a3300000000000000000000000000000000000000000000008152506040518060400160405280600381526020017f435133000000000000000000000000000000000000000000000000000000000081525081600090816200008f919062000324565b508060019081620000a1919062000324565b5050506200040b565b600081519050919050565b7f4e487b7100000000000000000000000000000000000000000000000000000000600052604160045260246000fd5b7f4e487b7100000000000000000000000000000000000000000000000000000000600052602260045260246000fd5b600060028204905060018216806200012c57607f821691505b602082108103620001425762000141620000e4565b5b50919050565b60008190508160005260206000209050919050565b60006020601f8301049050919050565b600082821b905092915050565b600060088302620001ac7fffffffffffffffffffffffffffffffffffffffffffffffffffffffffffffffff826200016d565b620001b886836200016d565b95508019841693508086168417925050509392505050565b6000819050919050565b6000819050919050565b600062000205620001ff620001f984620001d0565b620001da565b620001d0565b9050919050565b6000819050919050565b6200022183620001e4565b6200023962000230826200020c565b8484546200017a565b825550505050565b600090565b6200025062000241565b6200025d81848462000216565b505050565b5b8181101562000285576200027960008262000246565b60018101905062000263565b5050565b601f821115620002d4576200029e8162000148565b620002a9846200015d565b81016020851015620002b9578190505b620002d1620002c8856200015d565b83018262000262565b50505b505050565b600082821c905092915050565b6000620002f960001984600802620002d9565b1980831691505092915050565b6000620003148383620002e6565b9150826002028217905092915050565b6200032f82620000aa565b67ffffffffffffffff8111156200034b576200034a620000b5565b5b62000357825462000113565b6200036482828562000289565b600060209050601f8311600181146200039c576000841562000387578287015190505b62000393858262000306565b86555062000403565b601f198416620003ac8662000148565b60005b82811015620003d657848901518255600182019150602085019450602081019050620003af565b86831015620003f65784890151620003f2601f891682620002e6565b8355505b6001600288020188555050505b505050505050565b613779806200041b6000396000f3fe608060405234801561001057600080fd5b50600436106100ea5760003560e01c806370a082311161008c578063a22cb46511610066578063a22cb4651461026f578063b88d4fde1461028b578063c87b56dd146102a7578063e985e9c5146102d7576100ea565b806370a08231146101f157806395d89b4114610221578063990711901461023f576100ea565b8063095ea7b3116100c8578063095ea7b31461016d57806323b872dd1461018957806342842e0e146101a55780636352211e146101c1576100ea565b806301ffc9a7146100ef57806306fdde031461011f578063081812fc1461013d575b600080fd5b61010960048036038101906101049190611e4a565b610307565b6040516101169190611e92565b60405180910390f35b6101276103e9565b6040516101349190611f3d565b60405180910390f35b61015760048036038101906101529190611f95565b61047b565b6040516101649190612003565b60405180910390f35b6101876004803603810190610182919061204a565b6104c1565b005b6101a3600480360381019061019e919061208a565b6105d8565b005b6101bf60048036038101906101ba919061208a565b610638565b005b6101db60048036038101906101d69190611f95565b610658565b6040516101e89190612003565b60405180910390f35b61020b600480360381019061020691906120dd565b610709565b6040516102189190612119565b60405180910390f35b6102296107c0565b6040516102369190611f3d565b60405180910390f35b61025960048036038101906102549190612199565b610852565b6040516102669190612119565b60405180910390f35b6102896004803603810190610284919061225a565b610a21565b005b6102a560048036038101906102a091906123ca565b610a37565b005b6102c160048036038101906102bc9190611f95565b610a99565b6040516102ce9190611f3d565b60405180910390f35b6102f160048036038101906102ec919061244d565b610bab565b6040516102fe9190611e92565b60405180910390f35b60007f80ac58cd000000000000000000000000000000000000000000000000000000007bffffffffffffffffffffffffffffffffffffffffffffffffffffffff1916827bffffffffffffffffffffffffffffffffffffffffffffffffffffffff191614806103d257507f5b5e139f000000000000000000000000000000000000000000000000000000007bffffffffffffffffffffffffffffffffffffffffffffffffffffffff1916827bffffffffffffffffffffffffffffffffffffffffffffffffffffffff1916145b806103e257506103e182610c3f565b5b9050919050565b6060600080546103f8906124bc565b80601f0160208091040260200160405190810160405280929190818152602001828054610424906124bc565b80156104715780601f1061044657610100808354040283529160200191610471565b820191906000526020600020905b81548152906001019060200180831161045457829003601f168201915b5050505050905090565b600061048682610ca9565b6004600083815260200190815260200160002060009054906101000a900473ffffffffffffffffffffffffffffffffffffffff169050919050565b60006104cc82610658565b90508073ffffffffffffffffffffffffffffffffffffffff168373ffffffffffffffffffffffffffffffffffffffff160361053c576040517f08c379a00000000000000000000000000000000000000000000000000000000081526004016105339061255f565b60405180910390fd5b8073ffffffffffffffffffffffffffffffffffffffff1661055b610cf4565b73ffffffffffffffffffffffffffffffffffffffff16148061058a575061058981610584610cf4565b610bab565b5b6105c9576040517f08c379a00000000000000000000000000000000000000000000000000000000081526004016105c0906125f1565b60405180910390fd5b6105d38383610cfc565b505050565b6105e96105e3610cf4565b82610db5565b610628576040517f08c379a000000000000000000000000000000000000000000000000000000000815260040161061f90612683565b60405180910390fd5b610633838383610e4a565b505050565b61065383838360405180602001604052806000815250610a37565b505050565b6000806002600084815260200190815260200160002060009054906101000a900473ffffffffffffffffffffffffffffffffffffffff169050600073ffffffffffffffffffffffffffffffffffffffff168173ffffffffffffffffffffffffffffffffffffffff1603610700576040517f08c379a00000000000000000000000000000000000000000000000000000000081526004016106f7906126ef565b60405180910390fd5b80915050919050565b60008073ffffffffffffffffffffffffffffffffffffffff168273ffffffffffffffffffffffffffffffffffffffff1603610779576040517f08c379a000000000000000000000000000000000000000000000000000000000815260040161077090612781565b60405180910390fd5b600360008373ffffffffffffffffffffffffffffffffffffffff1673ffffffffffffffffffffffffffffffffffffffff168152602001908152602001600020549050919050565b6060600180546107cf906124bc565b80601f01602080910402602001604051908101604052809291908181526020018280546107fb906124bc565b80156108485780601f1061081d57610100808354040283529160200191610848565b820191906000526020600020905b81548152906001019060200180831161082b57829003601f168201915b5050505050905090565b60006108926040518060400160405280601881526020017f54686973206973206d696e7443513320636f6e747261637400000000000000008152506110b0565b61089c6007611149565b60006108a8600761115f565b90506108b4878261116d565b6000868686866108db8c73ffffffffffffffffffffffffffffffffffffffff166014611346565b6040516020016108ef959493929190612be6565b6040516020818303038152906040529050600061090b82611582565b60405160200161091b9190612c9e565b604051602081830303815290604052905061096b6040518060400160405280601381526020017f5468697320697320746865205356473a20257300000000000000000000000000815250836116e5565b606091506000816040516020016109829190612cc0565b60405160208183030381529060405290506060915060006109a282611582565b6040516020016109b29190612d23565b604051602081830303815290604052905060609150610a066040518060400160405280601881526020017f546869732069732074686520746f6b656e5552493a2025730000000000000000815250826116e5565b610a108582611781565b849550505050505095945050505050565b610a33610a2c610cf4565b83836117ee565b5050565b610a48610a42610cf4565b83610db5565b610a87576040517f08c379a0000000000000000000000000000000000000000000000000000000008152600401610a7e90612683565b60405180910390fd5b610a938484848461195a565b50505050565b6060610aa482610ca9565b6000600660008481526020019081526020016000208054610ac4906124bc565b80601f0160208091040260200160405190810160405280929190818152602001828054610af0906124bc565b8015610b3d5780601f10610b1257610100808354040283529160200191610b3d565b820191906000526020600020905b815481529060010190602001808311610b2057829003601f168201915b505050505090506000610b4e6119b6565b90506000815103610b63578192505050610ba6565b600082511115610b98578082604051602001610b80929190612d45565b60405160208183030381529060405292505050610ba6565b610ba1846119cd565b925050505b919050565b6000600560008473ffffffffffffffffffffffffffffffffffffffff1673ffffffffffffffffffffffffffffffffffffffff16815260200190815260200160002060008373ffffffffffffffffffffffffffffffffffffffff1673ffffffffffffffffffffffffffffffffffffffff16815260200190815260200160002060009054906101000a900460ff16905092915050565b60007f01ffc9a7000000000000000000000000000000000000000000000000000000007bffffffffffffffffffffffffffffffffffffffffffffffffffffffff1916827bffffffffffffffffffffffffffffffffffffffffffffffffffffffff1916149050919050565b610cb281611a35565b610cf1576040517f08c379a0000000000000000000000000000000000000000000000000000000008152600401610ce8906126ef565b60405180910390fd5b50565b600033905090565b816004600083815260200190815260200160002060006101000a81548173ffffffffffffffffffffffffffffffffffffffff021916908373ffffffffffffffffffffffffffffffffffffffff160217905550808273ffffffffffffffffffffffffffffffffffffffff16610d6f83610658565b73ffffffffffffffffffffffffffffffffffffffff167f8c5be1e5ebec7d5bd14f71427d1e84f3dd0314c0f7b2291e5b200ac8c7c3b92560405160405180910390a45050565b600080610dc183610658565b90508073ffffffffffffffffffffffffffffffffffffffff168473ffffffffffffffffffffffffffffffffffffffff161480610e035750610e028185610bab565b5b80610e4157508373ffffffffffffffffffffffffffffffffffffffff16610e298461047b565b73ffffffffffffffffffffffffffffffffffffffff16145b91505092915050565b8273ffffffffffffffffffffffffffffffffffffffff16610e6a82610658565b73ffffffffffffffffffffffffffffffffffffffff1614610ec0576040517f08c379a0000000000000000000000000000000000000000000000000000000008152600401610eb790612ddb565b60405180910390fd5b600073ffffffffffffffffffffffffffffffffffffffff168273ffffffffffffffffffffffffffffffffffffffff1603610f2f576040517f08c379a0000000000000000000000000000000000000000000000000000000008152600401610f2690612e6d565b60405180910390fd5b610f3a838383611aa1565b610f45600082610cfc565b6001600360008573ffffffffffffffffffffffffffffffffffffffff1673ffffffffffffffffffffffffffffffffffffffff1681526020019081526020016000206000828254610f959190612ebc565b925050819055506001600360008473ffffffffffffffffffffffffffffffffffffffff1673ffffffffffffffffffffffffffffffffffffffff1681526020019081526020016000206000828254610fec9190612ef0565b92505081905550816002600083815260200190815260200160002060006101000a81548173ffffffffffffffffffffffffffffffffffffffff021916908373ffffffffffffffffffffffffffffffffffffffff160217905550808273ffffffffffffffffffffffffffffffffffffffff168473ffffffffffffffffffffffffffffffffffffffff167fddf252ad1be2c89b69c2b068fc378daa952ba7f163c4a11628f55a4df523b3ef60405160405180910390a46110ab838383611aa6565b505050565b611146816040516024016110c49190611f3d565b6040516020818303038152906040527f41304fac000000000000000000000000000000000000000000000000000000007bffffffffffffffffffffffffffffffffffffffffffffffffffffffff19166020820180517bffffffffffffffffffffffffffffffffffffffffffffffffffffffff8381831617835250505050611aab565b50565b6001816000016000828254019250508190555050565b600081600001549050919050565b600073ffffffffffffffffffffffffffffffffffffffff168273ffffffffffffffffffffffffffffffffffffffff16036111dc576040517f08c379a00000000000000000000000000000000000000000000000000000000081526004016111d390612f70565b60405180910390fd5b6111e581611a35565b15611225576040517f08c379a000000000000000000000000000000000000000000000000000000000815260040161121c90612fdc565b60405180910390fd5b61123160008383611aa1565b6001600360008473ffffffffffffffffffffffffffffffffffffffff1673ffffffffffffffffffffffffffffffffffffffff16815260200190815260200160002060008282546112819190612ef0565b92505081905550816002600083815260200190815260200160002060006101000a81548173ffffffffffffffffffffffffffffffffffffffff021916908373ffffffffffffffffffffffffffffffffffffffff160217905550808273ffffffffffffffffffffffffffffffffffffffff16600073ffffffffffffffffffffffffffffffffffffffff167fddf252ad1be2c89b69c2b068fc378daa952ba7f163c4a11628f55a4df523b3ef60405160405180910390a461134260008383611aa6565b5050565b6060600060028360026113599190612ffc565b6113639190612ef0565b67ffffffffffffffff81111561137c5761137b61229f565b5b6040519080825280601f01601f1916602001820160405280156113ae5781602001600182028036833780820191505090505b5090507f3000000000000000000000000000000000000000000000000000000000000000816000815181106113e6576113e561303e565b5b60200101907effffffffffffffffffffffffffffffffffffffffffffffffffffffffffffff1916908160001a9053507f78000000000000000000000000000000000000000000000000000000000000008160018151811061144a5761144961303e565b5b60200101907effffffffffffffffffffffffffffffffffffffffffffffffffffffffffffff1916908160001a9053506000600184600261148a9190612ffc565b6114949190612ef0565b90505b6001811115611534577f3031323334353637383961626364656600000000000000000000000000000000600f8616601081106114d6576114d561303e565b5b1a60f81b8282815181106114ed576114ec61303e565b5b60200101907effffffffffffffffffffffffffffffffffffffffffffffffffffffffffffff1916908160001a905350600485901c94508061152d9061306d565b9050611497565b5060008414611578576040517f08c379a000000000000000000000000000000000000000000000000000000000815260040161156f906130e2565b60405180910390fd5b8091505092915050565b606060008251036115a4576040518060200160405280600081525090506116e0565b600060405180606001604052806040815260200161370460409139905060006003600285516115d39190612ef0565b6115dd9190613131565b60046115e99190612ffc565b67ffffffffffffffff8111156116025761160161229f565b5b6040519080825280601f01601f1916602001820160405280156116345781602001600182028036833780820191505090505b509050600182016020820185865187015b808210156116a0576003820191508151603f8160121c168501518453600184019350603f81600c1c168501518453600184019350603f8160061c168501518453600184019350603f8116850151845360018401935050611645565b50506003865106600181146116bc57600281146116cf576116d7565b603d6001830353603d60028303536116d7565b603d60018303535b50505080925050505b919050565b61177d82826040516024016116fb929190613162565b6040516020818303038152906040527f4b5c4277000000000000000000000000000000000000000000000000000000007bffffffffffffffffffffffffffffffffffffffffffffffffffffffff19166020820180517bffffffffffffffffffffffffffffffffffffffffffffffffffffffff8381831617835250505050611aab565b5050565b61178a82611a35565b6117c9576040517f08c379a00000000000000000000000000000000000000000000000000000000081526004016117c09061320b565b60405180910390fd5b806006600084815260200190815260200160002090816117e991906133d7565b505050565b8173ffffffffffffffffffffffffffffffffffffffff168373ffffffffffffffffffffffffffffffffffffffff160361185c576040517f08c379a0000000000000000000000000000000000000000000000000000000008152600401611853906134f5565b60405180910390fd5b80600560008573ffffffffffffffffffffffffffffffffffffffff1673ffffffffffffffffffffffffffffffffffffffff16815260200190815260200160002060008473ffffffffffffffffffffffffffffffffffffffff1673ffffffffffffffffffffffffffffffffffffffff16815260200190815260200160002060006101000a81548160ff0219169083151502179055508173ffffffffffffffffffffffffffffffffffffffff168373ffffffffffffffffffffffffffffffffffffffff167f17307eab39ab6107e8899845ad3d59bd9653f200f220920489ca2b5937696c318360405161194d9190611e92565b60405180910390a3505050565b611965848484610e4a565b61197184848484611ad4565b6119b0576040517f08c379a00000000000000000000000000000000000000000000000000000000081526004016119a790613587565b60405180910390fd5b50505050565b606060405180602001604052806000815250905090565b60606119d882610ca9565b60006119e26119b6565b90506000815111611a025760405180602001604052806000815250611a2d565b80611a0c84611c5b565b604051602001611a1d929190612d45565b6040516020818303038152906040525b915050919050565b60008073ffffffffffffffffffffffffffffffffffffffff166002600084815260200190815260200160002060009054906101000a900473ffffffffffffffffffffffffffffffffffffffff1673ffffffffffffffffffffffffffffffffffffffff1614159050919050565b505050565b505050565b60008151905060006a636f6e736f6c652e6c6f679050602083016000808483855afa5050505050565b6000611af58473ffffffffffffffffffffffffffffffffffffffff16611dbb565b15611c4e578373ffffffffffffffffffffffffffffffffffffffff1663150b7a02611b1e610cf4565b8786866040518563ffffffff1660e01b8152600401611b4094939291906135fc565b6020604051808303816000875af1925050508015611b7c57506040513d601f19601f82011682018060405250810190611b79919061365d565b60015b611bfe573d8060008114611bac576040519150601f19603f3d011682016040523d82523d6000602084013e611bb1565b606091505b506000815103611bf6576040517f08c379a0000000000000000000000000000000000000000000000000000000008152600401611bed90613587565b60405180910390fd5b805181602001fd5b63150b7a0260e01b7bffffffffffffffffffffffffffffffffffffffffffffffffffffffff1916817bffffffffffffffffffffffffffffffffffffffffffffffffffffffff191614915050611c53565b600190505b949350505050565b606060008203611ca2576040518060400160405280600181526020017f30000000000000000000000000000000000000000000000000000000000000008152509050611db6565b600082905060005b60008214611cd4578080611cbd9061368a565b915050600a82611ccd9190613131565b9150611caa565b60008167ffffffffffffffff811115611cf057611cef61229f565b5b6040519080825280601f01601f191660200182016040528015611d225781602001600182028036833780820191505090505b5090505b60008514611daf57600182611d3b9190612ebc565b9150600a85611d4a91906136d2565b6030611d569190612ef0565b60f81b818381518110611d6c57611d6b61303e565b5b60200101907effffffffffffffffffffffffffffffffffffffffffffffffffffffffffffff1916908160001a905350600a85611da89190613131565b9450611d26565b8093505050505b919050565b6000808273ffffffffffffffffffffffffffffffffffffffff163b119050919050565b6000604051905090565b600080fd5b600080fd5b60007fffffffff0000000000000000000000000000000000000000000000000000000082169050919050565b611e2781611df2565b8114611e3257600080fd5b50565b600081359050611e4481611e1e565b92915050565b600060208284031215611e6057611e5f611de8565b5b6000611e6e84828501611e35565b91505092915050565b60008115159050919050565b611e8c81611e77565b82525050565b6000602082019050611ea76000830184611e83565b92915050565b600081519050919050565b600082825260208201905092915050565b60005b83811015611ee7578082015181840152602081019050611ecc565b60008484015250505050565b6000601f19601f8301169050919050565b6000611f0f82611ead565b611f198185611eb8565b9350611f29818560208601611ec9565b611f3281611ef3565b840191505092915050565b60006020820190508181036000830152611f578184611f04565b905092915050565b6000819050919050565b611f7281611f5f565b8114611f7d57600080fd5b50565b600081359050611f8f81611f69565b92915050565b600060208284031215611fab57611faa611de8565b5b6000611fb984828501611f80565b91505092915050565b600073ffffffffffffffffffffffffffffffffffffffff82169050919050565b6000611fed82611fc2565b9050919050565b611ffd81611fe2565b82525050565b60006020820190506120186000830184611ff4565b92915050565b61202781611fe2565b811461203257600080fd5b50565b6000813590506120448161201e565b92915050565b6000806040838503121561206157612060611de8565b5b600061206f85828601612035565b925050602061208085828601611f80565b9150509250929050565b6000806000606084860312156120a3576120a2611de8565b5b60006120b186828701612035565b93505060206120c286828701612035565b92505060406120d386828701611f80565b9150509250925092565b6000602082840312156120f3576120f2611de8565b5b600061210184828501612035565b91505092915050565b61211381611f5f565b82525050565b600060208201905061212e600083018461210a565b92915050565b600080fd5b600080fd5b600080fd5b60008083601f84011261215957612158612134565b5b8235905067ffffffffffffffff81111561217657612175612139565b5b6020830191508360018202830111156121925761219161213e565b5b9250929050565b6000806000806000606086880312156121b5576121b4611de8565b5b60006121c388828901612035565b955050602086013567ffffffffffffffff8111156121e4576121e3611ded565b5b6121f088828901612143565b9450945050604086013567ffffffffffffffff81111561221357612212611ded565b5b61221f88828901612143565b92509250509295509295909350565b61223781611e77565b811461224257600080fd5b50565b6000813590506122548161222e565b92915050565b6000806040838503121561227157612270611de8565b5b600061227f85828601612035565b925050602061229085828601612245565b9150509250929050565b600080fd5b7f4e487b7100000000000000000000000000000000000000000000000000000000600052604160045260246000fd5b6122d782611ef3565b810181811067ffffffffffffffff821117156122f6576122f561229f565b5b80604052505050565b6000612309611dde565b905061231582826122ce565b919050565b600067ffffffffffffffff8211156123355761233461229f565b5b61233e82611ef3565b9050602081019050919050565b82818337600083830152505050565b600061236d6123688461231a565b6122ff565b9050828152602081018484840111156123895761238861229a565b5b61239484828561234b565b509392505050565b600082601f8301126123b1576123b0612134565b5b81356123c184826020860161235a565b91505092915050565b600080600080608085870312156123e4576123e3611de8565b5b60006123f287828801612035565b945050602061240387828801612035565b935050604061241487828801611f80565b925050606085013567ffffffffffffffff81111561243557612434611ded565b5b6124418782880161239c565b91505092959194509250565b6000806040838503121561246457612463611de8565b5b600061247285828601612035565b925050602061248385828601612035565b9150509250929050565b7f4e487b7100000000000000000000000000000000000000000000000000000000600052602260045260246000fd5b600060028204905060018216806124d457607f821691505b6020821081036124e7576124e661248d565b5b50919050565b7f4552433732313a20617070726f76616c20746f2063757272656e74206f776e6560008201527f7200000000000000000000000000000000000000000000000000000000000000602082015250565b6000612549602183611eb8565b9150612554826124ed565b604082019050919050565b600060208201905081810360008301526125788161253c565b9050919050565b7f4552433732313a20617070726f76652063616c6c6572206973206e6f7420746f60008201527f6b656e206f776e6572206e6f7220617070726f76656420666f7220616c6c0000602082015250565b60006125db603e83611eb8565b91506125e68261257f565b604082019050919050565b6000602082019050818103600083015261260a816125ce565b9050919050565b7f4552433732313a2063616c6c6572206973206e6f7420746f6b656e206f776e6560008201527f72206e6f7220617070726f766564000000000000000000000000000000000000602082015250565b600061266d602e83611eb8565b915061267882612611565b604082019050919050565b6000602082019050818103600083015261269c81612660565b9050919050565b7f4552433732313a20696e76616c696420746f6b656e2049440000000000000000600082015250565b60006126d9601883611eb8565b91506126e4826126a3565b602082019050919050565b60006020820190508181036000830152612708816126cc565b9050919050565b7f4552433732313a2061646472657373207a65726f206973206e6f74206120766160008201527f6c6964206f776e65720000000000000000000000000000000000000000000000602082015250565b600061276b602983611eb8565b91506127768261270f565b604082019050919050565b6000602082019050818103600083015261279a8161275e565b9050919050565b600081905092915050565b7f3c7376672077696474683d2234303022206865696768743d22343030223e3c7260008201527f6563742077696474683d223130302522206865696768743d223130302522206660208201527f696c6c3d22626c61636b22202f3e3c7465787420783d223530252220793d223160408201527f3525222066696c6c3d2277686974652220646f6d696e616e742d626173656c6960608201527f6e653d226d6964646c652220746578742d616e63686f723d226d6964646c652260808201527f3e26233132373931383b2026233132373936313b20436974795175697a333c2f60a08201527f746578743e3c7465787420783d223530252220793d22353025222066696c6c3d60c08201527f2277686974652220646f6d696e616e742d626173656c696e653d226d6964646c60e08201527f652220746578742d616e63686f723d226d6964646c6522207374796c653d22666101008201527f6f6e742d73697a653a323870783b223e26233132373934313b20436f6e6772616101208201527f74756c6174696f6e733c2f746578743e3c7465787420783d223530252220793d6101408201527f22383025222066696c6c3d2277686974652220646f6d696e616e742d626173656101608201527f6c696e653d226d6964646c652220746578742d616e63686f723d226d6964646c6101808201527f65223e4275696c64696e673a20000000000000000000000000000000000000006101a082015250565b60006129d76101ad836127a1565b91506129e2826127ac565b6101ad82019050919050565b60006129fa83856127a1565b9350612a0783858461234b565b82840190509392505050565b7f2c205175697a3a20000000000000000000000000000000000000000000000000600082015250565b6000612a496008836127a1565b9150612a5482612a13565b600882019050919050565b7f3c2f746578743e3c7465787420783d223530252220793d22393025222066696c60008201527f6c3d2277686974652220646f6d696e616e742d626173656c696e653d226d696460208201527f646c652220746578742d616e63686f723d226d6964646c65223e557365723a2060408201527f3078000000000000000000000000000000000000000000000000000000000000606082015250565b6000612b076062836127a1565b9150612b1282612a5f565b606282019050919050565b6000612b2882611ead565b612b3281856127a1565b9350612b42818560208601611ec9565b80840191505092915050565b7f3c2f746578743e00000000000000000000000000000000000000000000000000600082015250565b6000612b846007836127a1565b9150612b8f82612b4e565b600782019050919050565b7f3c2f7376673e0000000000000000000000000000000000000000000000000000600082015250565b6000612bd06006836127a1565b9150612bdb82612b9a565b600682019050919050565b6000612bf1826129c9565b9150612bfe8287896129ee565b9150612c0982612a3c565b9150612c168285876129ee565b9150612c2182612afa565b9150612c2d8284612b1d565b9150612c3882612b77565b9150612c4382612bc3565b91508190509695505050505050565b7f646174613a696d6167652f7376672b786d6c3b6261736536342c000000000000600082015250565b6000612c88601a836127a1565b9150612c9382612c52565b601a82019050919050565b6000612ca982612c7b565b9150612cb58284612b1d565b915081905092915050565b6000612ccc8284612b1d565b915081905092915050565b7f646174613a6170706c69636174696f6e2f6a736f6e3b6261736536342c000000600082015250565b6000612d0d601d836127a1565b9150612d1882612cd7565b601d82019050919050565b6000612d2e82612d00565b9150612d3a8284612b1d565b915081905092915050565b6000612d518285612b1d565b9150612d5d8284612b1d565b91508190509392505050565b7f4552433732313a207472616e736665722066726f6d20696e636f72726563742060008201527f6f776e6572000000000000000000000000000000000000000000000000000000602082015250565b6000612dc5602583611eb8565b9150612dd082612d69565b604082019050919050565b60006020820190508181036000830152612df481612db8565b9050919050565b7f4552433732313a207472616e7366657220746f20746865207a65726f2061646460008201527f7265737300000000000000000000000000000000000000000000000000000000602082015250565b6000612e57602483611eb8565b9150612e6282612dfb565b604082019050919050565b60006020820190508181036000830152612e8681612e4a565b9050919050565b7f4e487b7100000000000000000000000000000000000000000000000000000000600052601160045260246000fd5b6000612ec782611f5f565b9150612ed283611f5f565b9250828203905081811115612eea57612ee9612e8d565b5b92915050565b6000612efb82611f5f565b9150612f0683611f5f565b9250828201905080821115612f1e57612f1d612e8d565b5b92915050565b7f4552433732313a206d696e7420746f20746865207a65726f2061646472657373600082015250565b6000612f5a602083611eb8565b9150612f6582612f24565b602082019050919050565b60006020820190508181036000830152612f8981612f4d565b9050919050565b7f4552433732313a20746f6b656e20616c7265616479206d696e74656400000000600082015250565b6000612fc6601c83611eb8565b9150612fd182612f90565b602082019050919050565b60006020820190508181036000830152612ff581612fb9565b9050919050565b600061300782611f5f565b915061301283611f5f565b925082820261302081611f5f565b9150828204841483151761303757613036612e8d565b5b5092915050565b7f4e487b7100000000000000000000000000000000000000000000000000000000600052603260045260246000fd5b600061307882611f5f565b91506000820361308b5761308a612e8d565b5b600182039050919050565b7f537472696e67733a20686578206c656e67746820696e73756666696369656e74600082015250565b60006130cc602083611eb8565b91506130d782613096565b602082019050919050565b600060208201905081810360008301526130fb816130bf565b9050919050565b7f4e487b7100000000000000000000000000000000000000000000000000000000600052601260045260246000fd5b600061313c82611f5f565b915061314783611f5f565b92508261315757613156613102565b5b828204905092915050565b6000604082019050818103600083015261317c8185611f04565b905081810360208301526131908184611f04565b90509392505050565b7f45524337323155524953746f726167653a2055524920736574206f66206e6f6e60008201527f6578697374656e7420746f6b656e000000000000000000000000000000000000602082015250565b60006131f5602e83611eb8565b915061320082613199565b604082019050919050565b60006020820190508181036000830152613224816131e8565b9050919050565b60008190508160005260206000209050919050565b60006020601f8301049050919050565b600082821b905092915050565b60006008830261328d7fffffffffffffffffffffffffffffffffffffffffffffffffffffffffffffffff82613250565b6132978683613250565b95508019841693508086168417925050509392505050565b6000819050919050565b60006132d46132cf6132ca84611f5f565b6132af565b611f5f565b9050919050565b6000819050919050565b6132ee836132b9565b6133026132fa826132db565b84845461325d565b825550505050565b600090565b61331761330a565b6133228184846132e5565b505050565b5b818110156133465761333b60008261330f565b600181019050613328565b5050565b601f82111561338b5761335c8161322b565b61336584613240565b81016020851015613374578190505b61338861338085613240565b830182613327565b50505b505050565b600082821c905092915050565b60006133ae60001984600802613390565b1980831691505092915050565b60006133c7838361339d565b9150826002028217905092915050565b6133e082611ead565b67ffffffffffffffff8111156133f9576133f861229f565b5b61340382546124bc565b61340e82828561334a565b600060209050601f831160018114613441576000841561342f578287015190505b61343985826133bb565b8655506134a1565b601f19841661344f8661322b565b60005b8281101561347757848901518255600182019150602085019450602081019050613452565b868310156134945784890151613490601f89168261339d565b8355505b6001600288020188555050505b505050505050565b7f4552433732313a20617070726f766520746f2063616c6c657200000000000000600082015250565b60006134df601983611eb8565b91506134ea826134a9565b602082019050919050565b6000602082019050818103600083015261350e816134d2565b9050919050565b7f4552433732313a207472616e7366657220746f206e6f6e20455243373231526560008201527f63656976657220696d706c656d656e7465720000000000000000000000000000602082015250565b6000613571603283611eb8565b915061357c82613515565b604082019050919050565b600060208201905081810360008301526135a081613564565b9050919050565b600081519050919050565b600082825260208201905092915050565b60006135ce826135a7565b6135d881856135b2565b93506135e8818560208601611ec9565b6135f181611ef3565b840191505092915050565b60006080820190506136116000830187611ff4565b61361e6020830186611ff4565b61362b604083018561210a565b818103606083015261363d81846135c3565b905095945050505050565b60008151905061365781611e1e565b92915050565b60006020828403121561367357613672611de8565b5b600061368184828501613648565b91505092915050565b600061369582611f5f565b91507fffffffffffffffffffffffffffffffffffffffffffffffffffffffffffffffff82036136c7576136c6612e8d565b5b600182019050919050565b60006136dd82611f5f565b91506136e883611f5f565b9250826136f8576136f7613102565b5b82820690509291505056fe4142434445464748494a4b4c4d4e4f505152535455565758595a6162636465666768696a6b6c6d6e6f707172737475767778797a303132333435363738392b2fa2646970667358221220bb33ba76462502911c002b77d905a5475f6a07143968432bcdf9e26612e5af0664736f6c63430008110033",
  "linkReferences": {},
  "deployedLinkReferences": {}
}